:10000000020D878FF930FBFDAFF92202104275A176
:100010005575A1AA43B11075A1FF220210A78FFB4D
:0A002000E4F5FC75FA60ED42FA22E7
:10002B00021291EF14600A14600A24027008D28C39
:07003B0022D28E22D2CA225C
:100043000208A6EF24FD600D2402701190017FE0E9
:0E0053004DF0F59022900180E04DF0F5B022C6
:070063000213E300401454F6
:10006B00021232E4900136F0A3F0A3F0A3F090015A
:10007B00407408F0E4A3F0A3F0A3742DF0A3747FF5
:10008B00F0A3F0A3F0A37404F07F061216817BF0AB
:10009B007D017F011212EC7B0F7D037F011212ECAD
:1000AB007D107F011215C87D047F031215C89001C6
:1000BB004B740CF07B01E4FD7F031214BA900144E6
:1000CB00E0FD7F01121691900143E0FD7F021216B5
:1000DB00917B007A007900E4FF120EAA7DC07C5D53
:1000EB00E4FF121340D2AFC2AE900135E5FEF0E54E
:1000FB00875430F5FEAFFEEF64206005AFFEEF7066
:10010B00077FF47E01121647120B8D12110C7F0321
:10011B0012152390010AE090013AF0900102E06081
:10012B00FAE4FF12002EE4F5FF7F0112167112158F
:10013B00A290013DEEF0A3EFF012142E90013FEFD1
:10014B00F0C390013EE0940290013DE09400500317
:10015B0002029A90013FE020E70302029A7B017AA8
:10016B0001793B7D027C0012078590013BE0547FB7
:10017B0024F6B40E0040030203AD90019375F00317
:10018B00A4C58325F0C583730201BD0201CB020117
:10019B00DF0201EC0201FD02020802021302021847
:1001AB0002022502023902024A02029702025D0292
:1001BB00027890013CE0900141F0FDA3E0FF800E3E
:1001CB0090013CE0FF900142F0900141E0FD1216DE
:1001DB005E0203AD90013CE0900143F0FD7F028095
:1001EB000B90013CE0900144F0FD7F01121691024F
:1001FB0003AD90013CE0900145F00203AD90013C52
:10020B00E0900146F00203AD120B8D80031216A095
:10021B00E4900141F0A3F00203ADE4900141F090B2
:10022B00013CE0FF900142F01214780203AD900103
:10023B003CE0FF1216AC900141E004F00203AD90DC
:10024B00013CE05407900147F04408FF1215580297
:10025B0003AD900138E07F00900138F0FEA3EFF082
:10026B0090013CE0FDEDFF900138EE801B7E00908D
:10027B000139E0FF900138EEF0A3EFF0AD079001EC
:10028B003CE0FFED900138CFF0A3EFF00203AD900F
:10029B00013DE07002A3E070030203B690013FE062
:1002AB0030E7030203B6120E1990013BEFF0B418BE
:1002BB000040030203A59002C8F82828730203101C
:1002CB0002031902032202032A020332020337023A
:1002DB00033C02034402034B02035302035B02037E
:1002EB006102036702036D0203730203790203A524
:1002FB000203A50203A50203A502037F02038502E5
:10030B00039602039D90013B7431F00203A590010B
:10031B003B7436F00203A590013B7430F0807B9068
:10032B00013B7432F08073903FFC8008903FFC805F
:10033B000B903FFEE474018004903FFEE4938056E3
:10034B0090013B7408F0805290013B7402F0804A9C
:10035B00900141E08040900142E0803A900143E0FF
:10036B008034900144E0802E900145E0802890017C
:10037B0046E08022900147E0801CE5FEC4540FFF4D
:10038B00900135E04F90013BF0800F900138A3E0D6
:10039B008004900138E090013BF090013BE0FF12AC
:1003AB0011D1E4900136F0A3F0801490013DE0FCF4
:1003BB00A3E0FD4C60097B017A01793B1207859024
:1003CB000138E0FEA3E0FF4E6013900136E0FCA382
:1003DB00E0FDEFB50507EEB5040312000E900163C7
:1003EB00E07002A3E0604EE4900163F0A3F0900193
:1003FB0040E0FF900145E0C39F7D407F0140051227
:10040B00004680031215C8900140E0FF900146E0C2
:10041B00C39F7D087F03400512004680031215C859
:10042B00900140E02410F0900137E004F07006904A
:10043B000136E004F090010AE0FF90013AE06F60B2
:10044B001290010AE05403FF12152390010AE09069
:10045B00013AF0E4F5FF020139EF600302078490E3
:10046B000120E0FE90011FE0FDEDFF900117EEF083
:10047B00A3EFF090011AE090012EF0900119E0FF2C
:10048B00900123F0E4900100F0A3F0900131F09083
:10049B00014CF0EF5460FF7E0060030206AC90014C
:1004AB002EE0B40C0040030206AA9004BCF82828E6
:1004BB00730205AC0205BC0206AA0206290206AAB3
:1004CB000205780204E00206AA02058302059402E3
:1004DB00059F02070690011CE024FE601D14602D91
:1004EB00240260030207009001007416F0A374B697
:1004FB00F090014C7412F00207069001007416F094
:10050B00A374C8F090014C7443F002070690011BD2
:10051B00E0146019146022146021146030240470FC
:10052B002E9001007417F0A3740BF0802C90010037
:10053B007417F0A3740FF0802080149001007417CF
:10054B00F0A37433F090013174FFF0800C800090B5
:10055B0001007417F0A3741DF0900100E0FCA3E000
:10056B00F5828C83E49390014CF002070690011BFB
:10057B00E0900130F0020706900102E0900119F0C3
:10058B0090014C7401F002070690011BE0900102F0
:10059B00F002066BE4900119F090014C04F0020795
:1005AB0006E4900119F0A3F090014C7402F00207DD
:1005BB0006900123E0541F6402706090011DE0243B
:1005CB00FE602714603B2482601314602614603A8B
:1005DB002482704453D27F53D2F302070653D2BF07
:1005EB00E5D254FC4402F5D2807653D47F53D4F336
:1005FB0002070653D4BFE5D454FC4402F5D40207DA
:10060B000653D67F53D6F302070653D6BFE5D6540F
:10061B00FC4402F5D6020706020700020700900110
:10062B0023E0541F6402707590011EE0706F9001FF
:10063B001DE024FE6030146048248260181460347E
:10064B0014604B2482705453D27FE5D254F3440C84
:10065B00F5D202070653D2BFE5D254FC4403F5D2C0
:10066B0043E18002070653D47FE5D454F3440CF5E1
:10067B00D402070653D4BFE5D454FC4403F5D4800D
:10068B007A53D67FE5D654F3440CF5D6806D53D60A
:10069B00BFE5D654FC4403F5D68060805880568065
:1006AB0054EF64204E704E90012EE024E0604C24F9
:1006BB00FE603604703DE4FFEFC3940774809480B2
:1006CB00501FEF7C007B012403F9EC3401FA120A72
:1006DB00B6FE74192FF582E43401F583EEF00F802A
:1006EB00D790014C7407F0801290011BE090010A27
:1006FB00F08008800090014C74FFF090014CE0FFFB
:10070B00F4700A90012E74FFF075DCCF227E00D3BB
:10071B00900118E09F900117E09E4005EEF0A3EFCB
:10072B00F0900117E0FEA3E0FFD39408EE94004095
:10073B00067D087F08800090014CEFF0900131E0BE
:10074B00600CE4F090014CE0FF120C43801290011E
:10075B0000E07002A3E0600890014CE0FF1214F17E
:10076B0090014CE0FFFDC3900118E09DF090011744
:10077B00E09400F08FDD75DCC022900148ECF0A313
:10078B00EDF0900148E07002A3E070030208A59021
:10079B00012FE0607C900133E0FF900111E0C39FDB
:1007AB00FDE49400FC4D700990010EE060D4E480F0
:1007BB0059900148E0FEA3E0FFC39DEE9C5004ACB2
:1007CB0006AD07C3EF9DFFEE9C900148F0A3EFF041
:1007DB00900133E02440F582E43400F583E0120A03
:1007EB00FC740129F9E43AFA900133E004F0ED1DB1
:1007FB0070011C144C70D9900111E0FF900133E093
:10080B006F600302078DF0900111F090012F020829
:10081B009E900132E0FF90010FE0C39FFDE4940036
:10082B00FC4D701190010DE0700302078DE4F09008
:10083B00012F04805E900148E0FEA3E0FFC39DEE14
:10084B009C5004AC06AD07C3EF9DFFEE9C90014896
:10085B00F0A3EFF0900132E02400F582E43400F5D0
:10086B0083E0120AFC740129F9E43AFA900132E0B0
:10087B0004F0ED1D70011C144C70D990010FE0FFBA
:10088B00900132E06F600302078DF090010FF09042
:10089B00012F04F012160F02078D22C0E0C0F0C02A
:1008AB0083C082C0D075D000C000C001C002C0039D
:1008BB00C004C005C006C00720D903020958E5D9FA
:1008CB00543024F0602624F0604524F0605B243023
:1008DB007079900155E0FBA3E0FAA3E0F9EA494BEC
:1008EB006069E5D9540FFF900155805590015FE089
:1008FB0004F0700690015EE004F090014FE0FBA362
:10090B00E0FAA3E0F9EA494B6041120B87803C9077
:10091B000152E0FBA3E0FAA3E0F9EA494B602CE5B6
:10092B00D9540FFF9001528018900160E0FBA3E0B7
:10093B00FAA3E0F9EA494B6012E5D9540FFF900195
:10094B0060A3A3E0F5828A83120B8BC2D930D81C2B
:10095B00900158E0FBA3E0FAA3E0F9EA494B6003EE
:10096B00120B8775E300C2DAC2D9C2D830DA1CC2C7
:10097B00DA90015BE0FBA3E0FAA3E0F9EA494B60F4
:10098B000DE5DA30E208120B87800375D8FFD0072C
:10099B00D006D005D004D003D002D001D000D0D0E7
:1009AB00D082D083D0F0D0E03290014CEFF0707C4D
:1009BB00900123E05460706990012EE024FB604E9F
:1009CB00147059900117E0FEA3E0FFC39408EE9456
:1009DB000040067D087F08800090014DEFF09001EC
:1009EB0031E090014D6007E0FF120C438005E0FF02
:1009FB001214F190014DE0FFFDC3900118E09DF042
:100A0B00900117E09400F08FDD63DC40801EE5E37E
:100A1B005480FF900130E04FF5E38008E4F5DD8072
:100A2B0003E4F5DDE5DC54FC4402F5DC90014CE01D
:100A3B00FF7E006401702AF5D3E5D254FC4402F525
:100A4B00D290015EE0FDA3E0900115CDF0A3EDF097
:100A5B0043E18090015FE004F0700690015EE004DA
:100A6B00F0EF64034E704390015EE0FFA3E0900152
:100A7B0013CFF0A3EFF075D740E5D630E60FE49037
:100A8B000110F0900112E06440601F800DE49001B2
:100A9B0012F0900110E064406010E4F5D7E5D654F5
:100AAB00FC4402F5D6E490010BF022BB01068982CF
:100ABB008A83E0225002E722BBFE02E32289828A6C
:100ACB0083E49322BB010CE58229F582E5833AF599
:100ADB0083E0225006E92582F8E622BBFE06E925D3
:100AEB0082F8E222E58229F582E5833AF583E493E5
:100AFB0022BB010689828A83F0225002F722BBFEB9
:100B0B0001F322C5F0F8A3E028F0C5F0F8E5821553
:100B1B008270021583E038F022BB010A89828A8336
:100B2B00E0F5F0A3E022500687F009E71922BBFE9F
:100B3B0007E3F5F009E3192289828A83E493F5F040
:100B4B0074019322BB0110E58229F582E5833AF506
:100B5B0083E0F5F0A3E0225009E92582F886F0083E
:100B6B00E622BBFE0AE92582F8E2F5F008E222E56F
:100B7B00832AF583E993F5F0A3E993228A8389828B
:100B8B00E4737D087F0C12001E7F381215587F040A
:100B9B007E1012162D7F381215587F647E001216A8
:100BAB002D7F381215587F257E0012162D7F381297
:100BBB0015587F257E0012162D7F081215587F259C
:100BCB007E0012162D1216A07F061215587F257E59
:100BDB000012162D7F0C1215587F257E0012162D34
:100BEB00E4900148F0900148E0FFC39402748094B4
:100BFB00805039EF1215517F257E0012162DE4908F
:100C0B000149F0900149E0C394087480948050141A
:100C1B007FEB1215ED7F2B7E0012162D900149E014
:100C2B0004F080DF900148E004F080B97F021215D8
:100C3B00587FF07E0502162D90014EEFF07B017A66
:100C4B0001791990014EE0602B900131E0FFC394C4
:100C5B000274809480501DEF90173393120AFC742A
:100C6B000129F9E43AFA900131E004F090014EE0E9
:100C7B0014F080CF90014EE06063900131E0FF30C3
:100C8B00E003E480407DFB7C3FEF24FE1313543FD5
:100C9B002DFFE43CFCEF6401F5828C83E493FF9021
:100CAB000131E0C31330E005EFC4540FFFEF540FD5
:100CBB00FFC3940A74809480500674302FFF800415
:100CCB0074372FFFEF120AFC740129F9E43AFA90FA
:100CDB000131E004F090014EE014F0809722900176
:100CEB004CEFF0704E90012EE06420704090012389
:100CFB00E054606420703690014DF090014DE0C3DC
:100D0B009407748094805025E0FF2419F582E43415
:100D1B0001F583E0FEEF7C007B012403F9EC340149
:100D2B00FAEE120AFC90014DE004F080CEE4F5DD02
:100D3B0075DCC090014CE06402704030DE3DE5D4C0
:100D4B0030E71A90010FE5DBF0E07F0070027F01C6
:100D5B0090010DEFF0900111E060208016900111D1
:100D6B00E5DBF0E07F0070027F0190010EEFF0A356
:100D7B00E06008E5D454F34408F5D422787FE4F618
:100D8B00D8FD750804750900758109020DD40200A0
:100D9B006EE493A3F8E493A34003F68001F208DF1B
:100DAB00F48029E493A3F85407240CC8C333C45428
:100DBB000F4420C8834004F456800146F6DFE480DC
:100DCB000B010204081020408090116FE47E019308
:100DDB0060BCA3FF543F30E509541FFEE493A360AE
:100DEB00010ECF54C025E060A840B8E493A3FAE409
:100DFB0093A3F8E493A3C8C582C8CAC583CAF0A35A
:100E0B00C8C582C8CAC583CADFE9DEE780BE121532
:100E1B00A2EF4E60F990012FE0FE600D90010EE005
:100E2B006007E4F090012F800FEE701090010DE041
:100E3B00600AE4F090012F04F012160F90012FE0DE
:100E4B00602B900133E02440F582E43400F583E01D
:100E5B00FC900133E004F0900111E0FF900133E0CE
:100E6B006F7039F0900111F090012F802B900132AF
:100E7B00E02400F582E43400F583E0FC900132E0DD
:100E8B0004F090010FE0FF900132E0B5070EE4F0A3
:100E9B0090010FF090012F04F012160FAF04229067
:100EAB000148EBF0A3EAF0A3E9F0EF146031146012
:100EBB00582402707AC28C5389F043890143C9903C
:100ECB00E4900163F0A3F0900148E0F9A3E0FAA3EA
:100EDB00E090016DC9F0A3EAF0A3E9F0D2A922C218
:100EEB008E53890F43891043C9A0E4900165F0A389
:100EFB00F0900148E0F9A3E0FAA3E0900170C9F08B
:100F0B00A3EAF0A3E9F0D2AB22E4F5C853C9F0434E
:100F1B00C9C0900167F0A3F0900148E0F9A3E0FA93
:100F2B00A3E0900173C9F0A3EAF0A3E9F0D2AD22DC
:100F3B00E490015EF0A3F075E229F5E375D181121F
:100F4B000B2485F0EDF5EC900002120B4F85F0EFC2
:100F5B00F5EE900004120B4F85F0E5F5E4900006DA
:100F6B00120B4F85F0E7F5E6900008120ACFF5DC7F
:100F7B00900009120ACFF5D290000A120ACFF5D4CD
:100F8B0090000B120ACFF5D690000C120ACFF5DEAB
:100F9B0090000D120ACFF5EA90000E120ACFF5EB76
:100FAB00E4F5DDF5D3F5D5F5D7F5DF90000F120A93
:100FBB00CFF5E175D8FFD2EA22900113E0FEA3E052
:100FCB00FFC390015FE09FFF90015EE09EFEC3EFC9
:100FDB009419EE9400403890010BE0FFA3E04F70A2
:100FEB002E900134E06010900112E0F5D77440F0C0
:100FFB00E4900134F0800F900110E0F5D77440F0CD
:10100B009001347401F053D6FC90010B7401F090F5
:10101B000115E0FEA3E0FFC390015FE09FFF90018D
:10102B005EE09EFEC3EF9419EE9400400975D30A5F
:10103B0053D2FC53E17F22C0E0C0F0C083C082C01A
:10104B00D075D000C000C001C002C003C004C005F1
:10105B00C006C007900169E0FEA3E0F58AEEF58CAF
:10106B00900164E004F07006900163E004F09001DD
:10107B006DE0FBA3E0FAA3E0F9EA494B6003120B26
:10108B0087D007D006D005D004D003D002D001D032
:10109B0000D0D0D082D083D0F0D0E032C0E0C0F00E
:1010AB00C083C082C0D075D000C000C001C002C0D8
:1010BB0003C004C005C006C00790016BE0FEA3E0AF
:1010CB00F58BEEF58D900166E004F07006900165EE
:1010DB00E004F0900170E0FBA3E0FAA3E0F9EA4929
:1010EB004B6003120B87D007D006D005D004D0037A
:1010FB00D002D001D000D0D0D082D083D0F0D0E0BD
:10110B003290014F74FFF0A3740FF0A374C4F090EE
:10111B00015574FFF0A3740CF0A374E9F090015225
:10112B0074FFF0A37409F0A374B4F090016074FF22
:10113B00F0A37404F0A37464F090015874FFF0A34F
:10114B007413F0A37492F090015BE4F0A3F0A3F09E
:10115B007BFF7A17793F120F3BE4FF121523E490C4
:10116B000102F02241017FFF410180FF43017C001E
:10117B000000410178004201760000430179000034
:10118B000043014F00000043000100000043000139
:10119B000000004300010000004301580000004321
:1011AB00015B00000047010348E801000000084113
:1011BB00010A0043016D0000004301700000004371
:1011CB0001730000000090010C7401F0900134E0F9
:1011DB006026900112E0FE64407002804574C02EC0
:1011EB00F582E43400F583EFF00E900112EEF0641B
:1011FB0040702E9001348025900110E0FE64407009
:10120B0002801F74802EF582E43400F583EFF00E1C
:10121B00900110EEF06440700890013404F0121548
:10122B007AE490010CF022C0E0C0F0C083C082C011
:10123B00D075D000C000C001C002C003C004C005FF
:10124B00C006C007900178E0F5FF900177E004F04D
:10125B007006900176E004F0900179E0FBA3E0FAD0
:10126B00A3E0F9EA494B6003120B87D007D006D0F5
:10127B0005D004D003D002D001D000D0D0D082D082
:10128B0083D0F0D0E032C0E0C0F0C083C082C0D0C9
:10129B0075D000C000C001C002C003C004C005C0AF
:1012AB0006C007900168E004F07006900167E00447
:1012BB00F0900173E0FBA3E0FAA3E0F9EA494B607D
:1012CB0003120B87C2CFD007D006D005D004D003B2
:1012DB00D002D001D000D0D0D082D083D0F0D0E0DB
:1012EB0032A907ED24FD600A24027048AC92AE933C
:1012FB008004AC96AE97E914601414601614601C4D
:10130B0024037030EBF4FF5CFCEE5FFE8014EBF417
:10131B005C800BEC4BFCEBF45EFE8006EC4BFCEEC6
:10132B004BFEED24FD6009240270098C928E9322F2
:10133B008C968E9722EDF4FDECF4FCED2401FDE48C
:10134B003CFCEF14601A14602A2402703990016976
:10135B00ECF0A3EDF0F58AECF58CE49001638023BF
:10136B0090016BECF0A3EDF0F58BECF58DE49001B7
:10137B006580108CCB8DCAAE04AF058ECD8FCCE4BF
:10138B00900167F0A3F02253E17FE490010DF0A3ED
:10139B00F090012FF090010FF0900132F0900111BD
:1013AB00F0900133F090010CF0900134F0900110AB
:1013BB00F0900112F075DC0275D21275D41275D64D
:1013CB0012A3F0A3F0A3F0A3F090015EF0A3F090B2
:1013DB000102F090010BF022C0E0C0F0C083C0828C
:1013EB00C0D075D000C000C001C002C003C004C093
:1013FB0005C006C00790017CE0FBA3E0FAA3E0F96F
:10140B00EA494B6003120B87D007D006D005D004F6
:10141B00D003D002D001D000D0D0D082D083D0F076
:10142B00D0E03290012FE0FE600D90010EE06007DE
:10143B00E4F090012F800FEE701090010DE0600A28
:10144B00E4F090012F04F012160F90012FE0600DC5
:10145B00900133E02440F582E43400800B9001329C
:10146B00E02400F582E43400F583E0FF229001488C
:10147B00EFF01215507F257E0012162DE4900149D6
:10148B00F0900149E0C394087480948050147F203D
:10149B001215ED7F2B7E0012162D900149E004F002
:1014AB0080DF9001481215507F257E0002162DEF2C
:1014BB0030E015539D49ED6003439D2053C6FB90CF
:1014CB00014BE042C6439D04EF30E115539D25EDE2
:1014DB006003439D4053C6F790014BE042C6439DCA
:1014EB0008AF038F9E227B017A017919EF60289058
:1014FB000100E0FCA3E0F5828C83E493120AFC74F8
:10150B000129F9E43AFA900101E004F07006900128
:10151B0000E004F01F80D522E4FEEEC3940A748031
:10152B0094805015EE90173593FD74242EF582E4BC
:10153B003401F583EDF00E80E190012CEFF075D3C3
:10154B000A53D2FC22E0900066934480FF90014A3C
:10155B00EFF07D047F031215C890014AE0FF1200E3
:10156B00037D107F011200467D107F010215C8908C
:10157B00010BE07021E5D630E607900112E0FF8009
:10158B0005900110E0FFEF6440700B75D74053D608
:10159B00FC90010B04F022900133E0FF900111E06D
:1015AB00C39FFFE49400FE900132E0FD90010FE039
:1015BB00C39DFDE49400CD2FFFED3EFE22EF24FDF5
:1015CB0060122402701B90017FE0FFEDF4FEEF5ED2
:1015DB00F0F59022900180E0FFEDF4FEEF5EF0F568
:1015EB00B02290014AEFF07D047F03120046900178
:1015FB004AE0FF1200037D107F011200467D107F31
:10160B00010215C8E5D4540C6017E5D430E70790F8
:10161B000111E0FF800590010FE0FFEF700353D441
:10162B00F322EF4E601505A105A105A105A105A1AA
:10163B0005A105A1EF1F70EA1E80E722AD07AC06DE
:10164B00ED4C600E7FE87E0312162DED1D70F11C24
:10165B0080EE22EF900066932D4480FF1215587F89
:10166B00257E0002162D75A15575A1AA53B1FEEF6B
:10167B0042B175A1FF2275A15575A1AA53B9F8EF17
:10168B0042B975A1FF22EF30E0028D9CEF30E104EF
:10169B00AF058F9B227F011215587FF07E05021636
:1016AB002D1215ED7F2B7E0002162D12011001025B
:1016BB00000008861A0CFE00010102030109024317
:1016CB00000201008032090400000102020004053F
:1016DB002400100105240100010424020205240644
:1016EB000001070581030A000109040100020A0039
:1016FB0000000705020240000007058302400000BE
:10170B00040309040E037700630068002E006300D6
:10171B006E00160355005300420020005300650075
:10172B007200690061006C001603A120000000002C
:10173B0002000000011901240000008002121212A5
:04174B0002405903FC
:00000001FF
