:10000000020D8D8FF930FBFDAFF92202104875A16A
:100010005575A1AA43B11075A1FF220210AD8FFB47
:0A002000E4F5FC75FA60ED42FA22E7
:10002B00021297EF14600A14600A24027008D28C33
:07003B0022D28E22D2CA225C
:100043000208ACEF24FD600D2402701190017FE0E3
:0E0053004DF0F59022900180E04DF0F5B022C6
:070063000213E900401454F0
:10006B00021238E4900136F0A3F0A3F0A3F0900154
:10007B00407408F0E4A3F0A3F0A3742DF0A3747FF5
:10008B00F0A3F0A3F0A37404F07F061216957BF097
:10009B007D017F011212F27B0F7D037F011212F2A1
:1000AB007D107F011215FE7D047F031215FE90015A
:1000BB004B740CF07B01E4FD7F031214C0900144E0
:1000CB00E0FD7F011216A5900143E0FD7F021216A1
:1000DB00A57B007A007900E4FF120EB07DC07C5D39
:1000EB00E4FF121346D2AFC2AE900135E5FEF0E548
:1000FB00875430F5FEAFFEEF64206005AFFEEF7066
:10010B00067FF47E0180047F0F7E0012165B120BBC
:10011B00931211127F0312155A90010AE090013AC3
:10012B00F0900102E060FAE4FF12002EE4F5FF7F8D
:10013B00011216851215D890013DEEF0A3EFF012C7
:10014B00143490013FEFF0C390013EE09402900114
:10015B003DE0940050030202A090013FE020E70332
:10016B000202A07B017A01793B7D027C0012078B96
:10017B0090013BE0547F24F6B40E0040030203B31E
:10018B0090019975F003A4C58325F0C58373020113
:10019B00C30201D10201E50201F202020302020EC7
:1001AB0002021902021E02022B02023F020250023D
:1001BB00029D02026302027E90013CE0900141F03D
:1001CB00FDA3E0FF800E90013CE0FF900142F09018
:1001DB000141E0FD1216720203B390013CE0900165
:1001EB0043F0FD7F02800B90013CE0900144F0FD59
:1001FB007F011216A50203B390013CE0900145F07C
:10020B000203B390013CE0900146F00203B3120BE2
:10021B009380031216B4E4900141F0A3F00203B3F0
:10022B00E4900141F090013CE0FF900142F0121488
:10023B007E0203B390013CE0FF1216C0900141E037
:10024B0004F00203B390013CE05407900147F044E3
:10025B0008FF1215310203B3900138E07F009001C3
:10026B0038F0FEA3EFF090013CE0FDEDFF9001387C
:10027B00EE801B7E00900139E0FF900138EEF0A379
:10028B00EFF0AD0790013CE0FFED900138CFF0A30C
:10029B00EFF00203B390013DE07002A3E0700302A4
:1002AB0003BC90013FE030E7030203BC120E1F902A
:1002BB00013BEFF0B4180040030203AB9002CEF801
:1002CB0028287302031602031F02032802033002BD
:1002DB00033802033D02034202034A0203510203A5
:1002EB005902036102036702036D02037302037970
:1002FB0002037F0203AB0203AB0203AB0203AB02AD
:10030B00038502038B02039C0203A390013B743110
:10031B00F00203AB90013B7436F00203AB90013B50
:10032B007430F0807B90013B7432F08073903FFC13
:10033B008008903FFC800B903FFEE474018004909A
:10034B003FFEE493805690013B7414F08052900171
:10035B003B7404F0804A900141E08040900142E000
:10036B00803A900143E08034900144E0802E90016C
:10037B0045E08028900146E08022900147E0801CF8
:10038B00E5FEC4540FFF900135E04F90013BF08028
:10039B000F900138A3E08004900138E090013BF00E
:1003AB0090013BE0FF1211D7E4900136F0A3F080EF
:1003BB001490013DE0FCA3E0FD4C60097B017A0148
:1003CB00793B12078B900138E0FEA3E0FF4E6013E0
:1003DB00900136E0FCA3E0FDEFB50507EEB5040395
:1003EB0012000E900163E07002A3E0604EE49001F6
:1003FB0063F0A3F0900140E0FF900145E0C39F7DC7
:10040B00407F01400512004680031215FE9001400B
:10041B00E0FF900146E0C39F7D087F03400512007B
:10042B004680031215FE900140E02410F090013736
:10043B00E004F07006900136E004F090010AE0FF52
:10044B0090013AE06F601290010AE05403FF12151D
:10045B005A90010AE090013AF0E4F5FF02013FEFF8
:10046B00600302078A900120E0FE90011FE0FDED82
:10047B00FF900117EEF0A3EFF090011AE090012E20
:10048B00F0900119E0FF900123F0E4900100F0A33C
:10049B00F0900131F090014CF0EF5460FF7E006062
:1004AB00030206B290012EE0B40C0040030206B02A
:1004BB009004C2F82828730205B20205C20206B0E6
:1004CB0002062F0206B002057E0204E60206B00207
:1004DB00058902059A0205A502070C90011CE02470
:1004EB00FE601D14602D24026003020706900100BC
:1004FB007416F0A374CAF090014C7412F002070C3E
:10050B009001007416F0A374DCF090014C7443F06E
:10051B0002070C90011BE014601914602214602177
:10052B001460302404702E9001007417F0A3741F14
:10053B00F0802C9001007417F0A37423F0802080BE
:10054B00149001007417F0A37447F090013174FFFD
:10055B00F0800C80009001007417F0A37431F090C0
:10056B000100E0FCA3E0F5828C83E49390014CF056
:10057B0002070C90011BE0900130F002070C900178
:10058B0002E0900119F090014C7401F002070C90FD
:10059B00011BE0900102F0020671E4900119F0904A
:1005AB00014C04F002070CE4900119F0A3F0900148
:1005BB004C7402F002070C900123E0541F6402708C
:1005CB006090011DE024FE602714603B24826013C1
:1005DB0014602614603A2482704453D27F53D2F3B2
:1005EB0002070C53D2BFE5D254FC4402F5D28076FD
:1005FB0053D47F53D4F302070C53D4BFE5D454FC2C
:10060B004402F5D402070C53D67F53D6F302070CE2
:10061B0053D6BFE5D654FC4402F5D602070C0207AD
:10062B0006020706900123E0541F640270759001C7
:10063B001EE0706F90011DE024FE603014604824B2
:10064B0082601814603414604B2482705453D27F30
:10065B00E5D254F3440CF5D202070C53D2BFE5D2CA
:10066B0054FC4403F5D243E18002070C53D47FE5DD
:10067B00D454F3440CF5D402070C53D4BFE5D45433
:10068B00FC4403F5D4807A53D67FE5D654F3440C5F
:10069B00F5D6806D53D6BFE5D654FC4403F5D68012
:1006AB0060805880568054EF64204E704E90012E1F
:1006BB00E024E0604C24FE603604703DE4FFEFC3A1
:1006CB00940774809480501FEF7C007B012403F906
:1006DB00EC3401FA120ABCFE74192FF582E43401D2
:1006EB00F583EEF00F80D790014C7407F0801290D9
:1006FB00011BE090010AF08008800090014C74FF10
:10070B00F090014CE0FFF4700A90012E74FFF0752D
:10071B00DCCF227E00D3900118E09F900117E09E62
:10072B004005EEF0A3EFF0900117E0FEA3E0FFD33E
:10073B009408EE940040067D087F08800090014CE1
:10074B00EFF0900131E0600CE4F090014CE0FF120F
:10075B000C498012900100E07002A3E06008900148
:10076B004CE0FF1214F790014CE0FFFDC390011811
:10077B00E09DF0900117E09400F08FDD75DCC02256
:10078B00900148ECF0A3EDF0900148E07002A3E07B
:10079B0070030208AB90012FE0607C900133E0FF07
:1007AB00900111E0C39FFDE49400FC4D7009900192
:1007BB000EE060D4E48059900148E0FEA3E0FFC353
:1007CB009DEE9C5004AC06AD07C3EF9DFFEE9C90D5
:1007DB000148F0A3EFF0900133E02440F582E434BC
:1007EB0000F583E0120B02740129F9E43AFA900147
:1007FB0033E004F0ED1D70011C144C70D990011105
:10080B00E0FF900133E06F6003020793F09001115A
:10081B00F090012F0208A4900132E0FF90010FE04D
:10082B00C39FFDE49400FC4D701190010DE070032B
:10083B00020793E4F090012F04805E900148E0FEE4
:10084B00A3E0FFC39DEE9C5004AC06AD07C3EF9D28
:10085B00FFEE9C900148F0A3EFF0900132E02400F2
:10086B00F582E43400F583E0120B02740129F9E4FC
:10087B003AFA900132E004F0ED1D70011C144C703B
:10088B00D990010FE0FF900132E06F6003020793F4
:10089B00F090010FF090012F04F012162302079332
:1008AB0022C0E0C0F0C083C082C0D075D000C000B1
:1008BB00C001C002C003C004C005C006C00720D9D8
:1008CB000302095EE5D9543024F0602624F060451C
:1008DB0024F0605B24307079900155E0FBA3E0FAC3
:1008EB00A3E0F9EA494B6069E5D9540FFF90015534
:1008FB00805590015FE004F0700690015EE004F01B
:10090B0090014FE0FBA3E0FAA3E0F9EA494B604109
:10091B00120B8D803C900152E0FBA3E0FAA3E0F9AF
:10092B00EA494B602CE5D9540FFF90015280189087
:10093B000160E0FBA3E0FAA3E0F9EA494B6012E5A2
:10094B00D9540FFF900160A3A3E0F5828A83120BA9
:10095B0091C2D930D81C900158E0FBA3E0FAA3E078
:10096B00F9EA494B6003120B8D75E300C2DAC2D969
:10097B00C2D830DA1CC2DA90015BE0FBA3E0FAA329
:10098B00E0F9EA494B600DE5DA30E208120B8D8095
:10099B000375D8FFD007D006D005D004D003D00202
:1009AB00D001D000D0D0D082D083D0F0D0E0329024
:1009BB00014CEFF0707C900123E054607069900162
:1009CB002EE024FB604E147059900117E0FEA3E05B
:1009DB00FFC39408EE940040067D087F08800090CA
:1009EB00014DEFF0900131E090014D6007E0FF12F7
:1009FB000C498005E0FF1214F790014DE0FFFDC399
:100A0B00900118E09DF0900117E09400F08FDD63EA
:100A1B00DC40801EE5E35480FF900130E04FF5E3AE
:100A2B008008E4F5DD8003E4F5DDE5DC54FC4402ED
:100A3B00F5DC90014CE0FF7E006401702AF5D3E5F4
:100A4B00D254FC4402F5D290015EE0FDA3E090018C
:100A5B0015CDF0A3EDF043E18090015FE004F07061
:100A6B000690015EE004F0EF64034E704390015E6C
:100A7B00E0FFA3E0900113CFF0A3EFF075D740E5B3
:100A8B00D630E60FE4900110F0900112E064406064
:100A9B001F800DE4900112F0900110E06440601093
:100AAB00E4F5D7E5D654FC4402F5D6E490010BF0FF
:100ABB0022BB010689828A83E0225002E722BBFE19
:100ACB0002E32289828A83E49322BB010CE582290B
:100ADB00F582E5833AF583E0225006E92582F8E6B4
:100AEB0022BBFE06E92582F8E222E58229F582E5A2
:100AFB00833AF583E49322BB010689828A83F02231
:100B0B005002F722BBFE01F322C5F0F8A3E028F058
:100B1B00C5F0F8E582158270021583E038F022BB30
:100B2B00010A89828A83E0F5F0A3E022500687F060
:100B3B0009E71922BBFE07E3F5F009E319228982C5
:100B4B008A83E493F5F074019322BB0110E58229AB
:100B5B00F582E5833AF583E0F5F0A3E0225009E94D
:100B6B002582F886F008E622BBFE0AE92582F8E228
:100B7B00F5F008E222E5832AF583E993F5F0A3E982
:100B8B0093228A838982E4737D087F0C12001E7F77
:100B9B00381215317F407E1F1216417F38121531E6
:100BAB007FC87E001216417F381215317F507E00B0
:100BBB001216417F381215317F507E001216417F7D
:100BCB00081215317F507E001216411216B47F06A3
:100BDB001215317F507E001216417F0C1215317F9A
:100BEB00507E00121641E4900148F0900148E0FF5E
:100BFB00C39404748094805039EF12152A7F507E71
:100C0B0000121641E4900149F0900149E0C394149D
:100C1B007480948050147FEB1215877F507E0012E6
:100C2B001641900149E004F080DF900148E004F0A8
:100C3B0080B97F021215317FB87E0B0216419001ED
:100C4B004EEFF07B017A01791990014EE0602B9009
:100C5B000131E0FFC3940274809480501DEF901714
:100C6B004793120B02740129F9E43AFA900131E02F
:100C7B0004F090014EE014F080CF90014EE06063E1
:100C8B00900131E0FF30E003E480407DFB7C3FEFDF
:100C9B0024FE1313543F2DFFE43CFCEF6401F5825B
:100CAB008C83E493FF900131E0C31330E005EFC474
:100CBB00540FFFEF540FFFC3940A748094805006B7
:100CCB0074302FFF800474372FFFEF120B02740167
:100CDB0029F9E43AFA900131E004F090014EE01466
:100CEB00F080972290014CEFF0704E90012EE06453
:100CFB00207040900123E054606420703690014DC9
:100D0B00F090014DE0C39407748094805025E0FF70
:100D1B002419F582E43401F583E0FEEF7C007B01BE
:100D2B002403F9EC3401FAEE120B0290014DE004AE
:100D3B00F080CEE4F5DD75DCC090014CE064027010
:100D4B004030DE3DE5D430E71A90010FE5DBF0E0F3
:100D5B007F0070027F0190010DEFF0900111E060B8
:100D6B00208016900111E5DBF0E07F0070027F011F
:100D7B0090010EEFF0A3E06008E5D454F34408F5BE
:100D8B00D422787FE4F6D8FD7508047509007581C7
:100D9B0009020DDA02006EE493A3F8E493A3400377
:100DAB00F68001F208DFF48029E493A3F8540724BA
:100DBB000CC8C333C4540F4420C8834004F456807A
:100DCB000146F6DFE4800B010204081020408090FE
:100DDB001175E47E019360BCA3FF543F30E50954C9
:100DEB001FFEE493A360010ECF54C025E060A84022
:100DFB00B8E493A3FAE493A3F8E493A3C8C582C819
:100E0B00CAC583CAF0A3C8C582C8CAC583CADFE9ED
:100E1B00DEE780BE1215D8EF4E60F990012FE0FE91
:100E2B00600D90010EE06007E4F090012F800FEE53
:100E3B00701090010DE0600AE4F090012F04F012A5
:100E4B00162390012FE0602B900133E02440F582B4
:100E5B00E43400F583E0FC900133E004F0900111E1
:100E6B00E0FF900133E06F7039F0900111F09001C9
:100E7B002F802B900132E02400F582E43400F583BF
:100E8B00E0FC900132E004F090010FE0FF900132A2
:100E9B00E0B5070EE4F090010FF090012F04F01273
:100EAB001623AF0422900148EBF0A3EAF0A3E9F07C
:100EBB00EF1460311460582402707AC28C5389F09D
:100ECB0043890143C990E4900163F0A3F09001487A
:100EDB00E0F9A3E0FAA3E090016DC9F0A3EAF0A357
:100EEB00E9F0D2A922C28E53890F43891043C9A0BE
:100EFB00E4900165F0A3F0900148E0F9A3E0FAA3B8
:100F0B00E0900170C9F0A3EAF0A3E9F0D2AB22E4C0
:100F1B00F5C853C9F043C9C0900167F0A3F0900125
:100F2B0048E0F9A3E0FAA3E0900173C9F0A3EAF05B
:100F3B00A3E9F0D2AD22E490015EF0A3F075E229B3
:100F4B00F5E375D181120B2A85F0EDF5EC900002DB
:100F5B00120B5585F0EFF5EE900004120B5585F052
:100F6B00E5F5E4900006120B5585F0E7F5E69000E9
:100F7B0008120AD5F5DC900009120AD5F5D29000BB
:100F8B000A120AD5F5D490000B120AD5F5D69000AB
:100F9B000C120AD5F5DE90000D120AD5F5EA900079
:100FAB000E120AD5F5EBE4F5DDF5D3F5D5F5D7F54E
:100FBB00DF90000F120AD5F5E175D8FFD2EA229027
:100FCB000113E0FEA3E0FFC390015FE09FFF9001E0
:100FDB005EE09EFEC3EF9419EE9400403890010B37
:100FEB00E0FFA3E04F702E900134E06010900112EF
:100FFB00E0F5D77440F0E4900134F0800F900110CD
:10100B00E0F5D77440F09001347401F053D6FC90A6
:10101B00010B7401F0900115E0FEA3E0FFC39001FA
:10102B005FE09FFF90015EE09EFEC3EF9419EE948C
:10103B0000400975D30A53D2FC53E17F22C0E0C0B4
:10104B00F0C083C082C0D075D000C000C001C00208
:10105B00C003C004C005C006C007900169E0FEA331
:10106B00E0F58AEEF58C900164E004F070069001D7
:10107B0063E004F090016DE0FBA3E0FAA3E0F9EA72
:10108B00494B6003120B8DD007D006D005D004D08E
:10109B0003D002D001D000D0D0D082D083D0F0D0FA
:1010AB00E032C0E0C0F0C083C082C0D075D000C0B9
:1010BB0000C001C002C003C004C005C006C0079039
:1010CB00016BE0FEA3E0F58BEEF58D900166E0047D
:1010DB00F07006900165E004F0900170E0FBA3E076
:1010EB00FAA3E0F9EA494B6003120B8DD007D00647
:1010FB00D005D004D003D002D001D000D0D0D08204
:10110B00D083D0F0D0E03290014F74FFF0A3740F76
:10111B00F0A374CAF090015574FFF0A3740CF0A304
:10112B0074EFF090015274FFF0A37409F0A374BA3A
:10113B00F090016074FFF0A37404F0A3746AF09054
:10114B00015874FFF0A37413F0A37498F090015B33
:10115B00E4F0A3F0A3F07BFF7A177953120F41E46D
:10116B00FF12155AE4900102F02241017FFF410169
:10117B0080FF43017C0000004101780042017600B2
:10118B000043017900000043014F000000430001C0
:10119B000000004300010000004300010000004379
:1011AB00015800000043015B00000047010348E8C1
:1011BB00010000000841010A0043016D00000043DB
:1011CB0001700000004301730000000090010C74DB
:1011DB0001F0900134E06026900112E0FE64407053
:1011EB0002804574C02EF582E43400F583EFF00ED7
:1011FB00900112EEF06440702E9001348025900126
:10120B0010E0FE64407002801F74802EF582E4347F
:10121B0000F583EFF00E900110EEF0644070089033
:10122B00013404F01215B0E490010CF022C0E0C0C0
:10123B00F0C083C082C0D075D000C000C001C00216
:10124B00C003C004C005C006C007900178E0F5FFDD
:10125B00900177E004F07006900176E004F09001C5
:10126B0079E0FBA3E0FAA3E0F9EA494B6003120B28
:10127B008DD007D006D005D004D003D002D001D03A
:10128B0000D0D0D082D083D0F0D0E032C0E0C0F01C
:10129B00C083C082C0D075D000C000C001C002C0E6
:1012AB0003C004C005C006C007900168E004F070DD
:1012BB0006900167E004F0900173E0FBA3E0FAA352
:1012CB00E0F9EA494B6003120B8DC2CFD007D00671
:1012DB00D005D004D003D002D001D000D0D0D08222
:1012EB00D083D0F0D0E032A907ED24FD600A2402B0
:1012FB007048AC92AE938004AC96AE97E914601430
:10130B0014601614601C24037030EBF4FF5CFCEECD
:10131B005FFE8014EBF45C800BEC4BFCEBF45EFE9D
:10132B008006EC4BFCEE4BFEED24FD6009240270B5
:10133B00098C928E93228C968E9722EDF4FDECF411
:10134B00FCED2401FDE43CFCEF14601A14602A242C
:10135B00027039900169ECF0A3EDF0F58AECF58C95
:10136B00E4900163802390016BECF0A3EDF0F58B1F
:10137B00ECF58DE490016580108CCB8DCAAE04AF7B
:10138B00058ECD8FCCE4900167F0A3F02253E17F63
:10139B00E490010DF0A3F090012FF090010FF0906D
:1013AB000132F0900111F0900133F090010CF090AC
:1013BB000134F0900110F0900112F075DC0275D23F
:1013CB001275D41275D612A3F0A3F0A3F0A3F0906C
:1013DB00015EF0A3F0900102F090010BF022C0E04F
:1013EB00C0F0C083C082C0D075D000C000C001C0A7
:1013FB0002C003C004C005C006C00790017CE0FB1F
:10140B00A3E0FAA3E0F9EA494B6003120B8DD00776
:10141B00D006D005D004D003D002D001D000D0D05C
:10142B00D082D083D0F0D0E03290012FE0FE600D5F
:10143B0090010EE06007E4F090012F800FEE70102A
:10144B0090010DE0600AE4F090012F04F0121623D6
:10145B0090012FE0600D900133E02440F582E434DD
:10146B0000800B900132E02400F582E43400F58318
:10147B00E0FF22900148EFF01215297F507E0012F9
:10148B001641E4900149F0900149E0C39414748033
:10149B00948050147F201215877F507E00121641C6
:1014AB00900149E004F080DF9001481215297F502C
:1014BB007E00021641EF30E015539D49ED6003436A
:1014CB009D2053C6FB90014BE042C6439D04EF3079
:1014DB00E115539D25ED6003439D4053C6F79001E5
:1014EB004BE042C6439D08AF038F9E227B017A01DE
:1014FB007919EF6028900100E0FCA3E0F5828C8362
:10150B00E493120B02740129F9E43AFA900101E019
:10151B0004F07006900100E004F01F80D522E090EB
:10152B000066934480FF90014AEFF07D047F031225
:10153B0015FE90014AE0FF1200037D107F0112009F
:10154B00467F017E001216417D107F010215FEE4DD
:10155B00FEEEC3940A748094805015EE9017499355
:10156B00FD74242EF582E43401F583EDF00E80E159
:10157B0090012CEFF075D30A53D2FC2290014AEF65
:10158B00F07D047F0312004690014AE0FF12000336
:10159B007D107F011200467F017E001216417D10E7
:1015AB007F010215FE90010BE07021E5D630E607B6
:1015BB00900112E0FF8005900110E0FFEF64407096
:1015CB000B75D74053D6FC90010B04F022900133DE
:1015DB00E0FF900111E0C39FFFE49400FE90013205
:1015EB00E0FD90010FE0C39DFDE49400CD2FFFEDD6
:1015FB003EFE22EF24FD60122402701B90017FE05F
:10160B00FFEDF4FEEF5EF0F59022900180E0FFED30
:10161B00F4FEEF5EF0F5B022E5D4540C6017E5D480
:10162B0030E707900111E0FF800590010FE0FFEF1D
:10163B00700353D4F322EF4E601505A105A105A14C
:10164B0005A105A105A105A1EF1F70EA1E80E722E8
:10165B00AD07AC06ED4C600E7FE87E03121641ED34
:10166B001D70F11C80EE22EF900066932D4480FFDD
:10167B001215317F507E0002164175A15575A1AA36
:10168B0053B1FEEF42B175A1FF2275A15575A1AA09
:10169B0053B9F8EF42B975A1FF22EF30E0028D9CF0
:1016AB00EF30E104AF058F9B227F011215317FB81C
:1016BB007E0B0216411215877F507E0002164112D7
:1016CB0001100102000008861A0CFE000101020342
:1016DB0001090243000201008032090400000102EB
:1016EB00020004052400100105240100010424025A
:1016FB00020524060001070581030A000109040104
:10170B0000020A00000007050202400000070583E3
:10171B0002400000040309040E0377006300680015
:10172B002E0063006E00160355005300420020008C
:10173B00530065007200690061006C001603A12064
:10174B0000000000020000000119012400000080CD
:08175B000212121202405903B0
:00000001FF
